:020000040000FA
:06000000D5EF0AF012002A
:020006001200E6
:0600080044EF08F01200B5
:02000E000200EE
:10001000E31500008A00000002000000E215000065
:080020008D000000010000004A
:08002800D9CFE6FFE1CFD9FFBB
:10003000140EE126FD0EDBCFE9FFFE0EDBCFEAFF5B
:10004000EECFDFFF010EEECFDBFF020EEECFDBFFC8
:10005000030EEECFDBFFFB0EDBCFE9FFFC0EDBCFA9
:10006000EAFF040EEECFDBFF050EEECFDBFF060E40
:10007000EECFDBFF070EEECFDBFF040EDBCF04F08D
:10008000050EDBCF05F0060EDBCF06F0070EDBCF4B
:1000900007F00A0E286ED70E296E230E2A6E3C0E2C
:1000A0002B6E04C023F005C024F006C025F007C065
:1000B00026F0A0EC04F023C000F024C001F025C01D
:1000C00002F026C003F0286A296A200E2A6E420E2A
:1000D0002B6E00C023F001C024F002C025F003C045
:1000E00026F009EC04F0100E23C0DBFF110E24C033
:1000F000DBFF120E25C0DBFF130E26C0DBFF540E04
:10010000236EE30E246E250E256E3D0E266E000E28
:10011000DFCF28F0010EDBCF29F0020EDBCF2AF073
:10012000030EDBCF2BF0A0EC04F023C004F024C0BE
:1001300005F025C006F026C007F0A20E236EE70EDC
:10014000246E3B0E256E360E266E000EDFCF28F095
:10015000010EDBCF29F0020EDBCF2AF0030EDBCF3E
:100160002BF0A0EC04F0000EDFCF28F0010EDBCF67
:1001700029F0020EDBCF2AF0030EDBCF2BF0A0EC30
:1001800004F023C008F024C009F025C00AF026C0FE
:100190000BF008C028F009C029F00AC02AF00BC0F3
:1001A0002BF004C023F005C024F006C025F007C0E2
:1001B00026F009EC04F023C000F024C001F025C0B3
:1001C00002F026C003F0286A296A800E2A6E400ECB
:1001D0002B6E00C023F001C024F002C025F003C044
:1001E00026F009EC04F0080E23C0DBFF090E24C042
:1001F000DBFF0A0E25C0DBFF0B0E26C0DBFF100E57
:10020000DBCF08F0110EDBCF09F0120EDBCF0AF0C6
:10021000130EDBCF0BF0286A296AC80E2A6E410E36
:100220002B6E08C023F009C024F00AC025F00BC0D3
:1002300026F009EC04F023C004F024C005F025C02A
:1002400006F026C007F00A0E106ED70E116E230EB0
:10025000126E3C0E136EAC0E236EC50E246EA70EEE
:10026000256E380E266E000EDFCF28F0010EDBCF94
:1002700029F0020EDBCF2AF0030EDBCF2BF0A0EC2F
:1002800004F023C014F024C015F025C016F026C0D9
:1002900017F014C028F015C029F016C02AF017C0B6
:1002A0002BF010C023F011C024F012C025F013C0B1
:1002B00026F00AEC04F023C00CF024C00DF025C099
:1002C0000EF026C00FF00CC028F00DC029F00EC0B3
:1002D0002AF00FC02BF004C023F005C024F006C0A4
:1002E00025F007C026F0A0EC04F023C000F024C0E5
:1002F00001F025C002F026C003F0080EDBCF18F095
:10030000090EDBCF19F00A0EDBCF1AF00B0EDBCF94
:100310001BF018C028F019C029F01AC02AF01BC021
:100320002BF000C023F001C024F002C025F003C070
:1003300026F00AEC04F00C0E23C0DBFF0D0E24C0E7
:10034000DBFF0E0E25C0DBFF0F0E26C0DBFF0C0E01
:10035000DBCF00F00D0EDBCF01F00E0EDBCF02F095
:100360000F0EDBCF03F0286A296AC80E2A6E420EF0
:100370002B6E00C023F001C024F002C025F003C0A2
:1003800026F08FEC05F0010A0EE10C0EDB6A0D0E73
:10039000DB6AC80EF36E0E0EF3CFDBFF420EF36E78
:1003A0000F0EF3CFDBFF0C0EDBCF00F00D0EDBCF1B
:1003B00001F00E0EDBCF02F00F0EDBCF03F0CD0EFF
:1003C000286ECC0E296E2A6E3D0E2B6E00C023F0D7
:1003D00001C024F002C025F003C026F098EC05F01F
:1003E000010A14E1CD0EF36E0C0EF3CFDBFFCC0E41
:1003F000F36E0D0EF3CFDBFFCC0EF36E0E0EF3CFCC
:10040000DBFF3D0EF36E0F0EF3CFDBFFFB0EDBCFFA
:10041000E9FFFC0EDBCFEAFF100EDBCFEEFF110E83
:10042000DBCFEEFF120EDBCFEEFF130EDBCFEEFFC6
:10043000FD0EDBCFE9FFFE0EDBCFEAFF0C0EDBCFBC
:10044000EEFF0D0EDBCFEEFF0E0EDBCFEEFF0F0E3D
:10045000DBCFEEFF140EE15C02E2E16AE552E16EF1
:10046000E552E7CFD9FF1200D9CFE6FFE1CFD9FFA0
:10047000070EE126040EDB6AF90EDBCF00F0FA0E60
:10048000DBCF01F0FB0EDBCF02F0FC0EDBCF03F085
:10049000286A296A200E2A6E410E2B6E00C023F0B6
:1004A00001C024F002C025F003C026F0A0EC04F047
:1004B00060EC05F0050E24C0DBFF060E25C0DBFF57
:1004C000FD0EDBCF24F0FE0EDBCF25F0020E24C0A4
:1004D000DBFF030E25C0DBFFD950050FE96EDACF35
:1004E000EAFFEE50ED1029E1020EDBCFE9FFDB2A37
:1004F000030EDBCFEAFF01E3DB2A300EEF6E020EC4
:10050000DBCFE9FFDB2A030EDBCFEAFF01E3DB2AC7
:100510002E0EEF6E020EDBCFE9FFDB2A030EDBCFE0
:10052000EAFF01E3DB2A300EEF6E020EDBCFE9FFBC
:10053000030EDBCFEAFFEF6A62D1050EDBCF00F0DE
:10054000060EDBCF01F00001800E011427E0FD0E46
:10055000DBCFE9FFDB2AFE0EDBCFEAFF01E3DB2A7C
:100560002D0EEF6EFD0EDBCF24F0FE0EDBCF25F05F
:10057000020E24C0DBFF030E25C0DBFF24682568C4
:10058000050EDBCF29F0060EDBCF2AF033EC05F0A9
:10059000050E22C0DBFF060E23C0DBFFD950050F7E
:1005A000E96EDACFEAFFEE50ED103FE0040EDB2AF1
:1005B000050EDBCF00F0060EDBCF01F00A0E296E30
:1005C0002A6A00C024F001C025F00DEC05F020C01F
:1005D00000F021C001F000C0DEFF01C0DDFFDECF72
:1005E00000F0DDCF01F0300E0026000E0122020ED9
:1005F000DBCFE9FFDB2A030EDBCFEAFF01E3DB2AD7
:1006000000C0EFFFD950050FE96EDACFEAFF0A0EFE
:10061000296E2A6AEECF24F0EDCF25F00DEC05F01F
:1006200024C0EEFF25C0EDFFB9D7DE6ADD6A040EF7
:10063000DB50FE0BE842DF5C66E2DF50E76EFD0E4A
:10064000DBCFE9FFFE0EDBCFEAFFE750E926000E25
:10065000EA22EF50E66E040EDB50E76EFD0EDBCFB4
:10066000E9FFFE0EDBCFEAFFE750E926000EEA22A3
:10067000E552E750EF6E040EDB50D880DF54FF0FD9
:10068000E76EFD0EDBCFE9FFFE0EDBCFEAFFE750A2
:10069000E926000EEA22EF50E66EDF50E76EFD0E0F
:1006A000DBCFE9FFFE0EDBCFEAFFE750E926000EC5
:1006B000EA22E552E750EF6E040EDB50E76EFD0EC6
:1006C000DBCFE9FFFE0EDBCFEAFFE750E926000EA5
:1006D000EA22EF50E66E040EDB50D880DF54FF0FA5
:1006E000E76EFD0EDBCFE9FFFE0EDBCFEAFFE75042
:1006F000E926000EEA22E552E750EF6EDF2A010EEE
:1007000001E3DB2A94D7040EDB043AE1FD0EDBCFD4
:10071000E9FFFE0EDBCFEAFFEF50E66E020EE76E5A
:10072000FD0EDBCFE9FFFE0EDBCFEAFFE750E92647
:10073000000EEA22E552E750EF6EFD0EDBCFE9FF37
:10074000FE0EDBCFEAFF300EEF6E010EE76EFD0E00
:10075000DBCFE9FFFE0EDBCFEAFFE750E926000E14
:10076000EA222E0EEF6E020EE76EDBCFE9FF030EDC
:10077000DBCFEAFFE750E926000EEA22EF6A3FD01E
:10078000040EDB50E76EFD0EDBCFE9FFFE0EDBCF84
:10079000EAFFE750E926000EEA22E906EA5AEF509E
:1007A000E66E040EDB50E76EFD0EDBCFE9FFFE0EBA
:1007B000DBCFEAFFE750E926000EEA22E552E750D8
:1007C000EF6E040EDB50E76EFD0EDBCFE9FFFE0E91
:1007D000DBCFEAFFE750E926000EEA22E906EA5AF3
:1007E0002E0EEF6E010EE76E020EDBCFE9FF030E59
:1007F000DBCFEAFFE750E926000EEA22EF6A070E98
:10080000E15C02E2E16AE552E16EE552E7CFD9FF31
:020810001200D4
:0E0812002B7E1D6A4EEC06F066EC06F01DB65D
:10082000F6EF05F01DA20AD01DAA03D01DBEF6EFFB
:1008300005F01DA402EF06F0FFEF05F01DAA05D09C
:100840001DAC02EF06F0FFEF05F01DA00AD01DA8B9
:1008500008D01DBE04D01DA402D00BEF06F00FEF90
:1008600006F02E6A216A2B50265C2D6E10E323C001
:100870002FF024C01EF025C01FF026C02CF028C089
:1008800023F029C024F02AC025F01D3A09D028C041
:100890002FF029C01EF02AC01FF02BC02CF02D6CA9
:1008A0001D9E1DBC1D8E2CC020F01DB03EEF06F01D
:1008B0001A0E2D603EEF06F0206A266A1DA408D0AD
:1008C000236C241E251E261EE86A242225222622A9
:1008D0001DAC08D02F6C1E1E1F1E201EE86A1E2293
:1008E0001F222022226A2D5207E02634253224328C
:1008F000233222322D2EF9D723502F2624501E22A8
:1009000025501F222650202222C02EF01D9E20AEF0
:100910000BD02E6C2F1E1E1E1F1E201EE86A2F22BB
:100920001E221F2220221D8E20A006D0D8801F321A
:100930001E322F322E322C2A2CC020F012EF06F05D
:100940001D6A4EEC06F066EC06F01DB6F6EF05F0FB
:100950001DA205D01DB8F6EF05F0FDEF05F01DAAAC
:1009600005D01DB0F6EF05F0FDEF05F01DB002D08B
:100970001DA802D009EF06F0216A2B502624206E14
:10098000E86A21227E0E205EE86A215A2E6A2F6ACA
:100990001E6A1F6A2A502502F4CF1FF0F3CF1EF003
:1009A00029502502F3502F26F4501E22000E1F223C
:1009B0002A502402F3502F26F4501E22000E1F222C
:1009C00028502502F3502E26F4502F22000E1E220E
:1009D0001F2229502402F3502E26F4502F22000EFD
:1009E0001E221F222A502302F3502E26F4502F22BB
:1009F000000E1E221F2228502402F4502E26000E24
:100A00002F221E221F2229502302F4502E26000ED0
:100A10002F221E221F2212EF06F01C6A2AAE16EFAA
:100A200005F0296C2A1EE86A2A221C1E25AE1EEF3C
:100A300005F0246C251EE86A25221C1EAFEC0AF086
:100A400025BE2EEF05F01CAE000C246C251EE86AB6
:100A50002522206C211EE86A2122000C1CBE25EFF5
:100A600005F01D88FF0C25C02FF024C02EF0245067
:100A70002902F4CF23F0F3CF22F025502A02F4CF3D
:100A800025F0F3CF24F02902F3502326F45024223A
:100A9000E86A25222E502A02F3502326F4502422FD
:100AA000E86A25222AAE59EF05F02E50245E2F5019
:100AB000255A2FAE000C2950245E2A50255A000CCE
:100AC0001D6A4EEC06F01DB66AEF05F01DA20ED0B1
:100AD0001DB405D07F0E256EFF0E246E1FD0800E34
:100AE000256E246A1BD0256A246A18D01DB0FBD756
:100AF0008F0E2660EDD77E0E2664F5D78E0E265C0F
:100B000005E0D89025322432262AF8D71DA406D035
:100B1000246C251EE86A252225AEE5D71200A1EC3B
:100B200005F01DB6000C1DB0000C1DB4000C010C2E
:100B3000A1EC05F01DB6000C1DB0000C1DA4000CAE
:100B4000010C1D6A4EEC06F066EC06F01DB61200B4
:100B50001DAE08D01DA004D01DA802D01D8012001B
:100B60001D9012002B50265C0BE12A50255C08E1F9
:100B70002950245C05E12850235C02E11D8012000D
:100B8000D8A002D01D8E10D026502BC026F02B6E80
:100B900025502AC025F02A6E245029C024F0296E41
:100BA000235028C023F0286E2B50265C10E0FF0F46
:100BB00009E01D901DB403D01DAE1D8412001DAEB2
:100BC0001D9412002B2AD8902A322932283228501C
:100BD000235E2950245A2A50255A25BEEAD7D89098
:100BE000233624362536262EF8D7C8D77F0E266E14
:100BF000FF0E256E246E236E12007F0E1DBEFF0EAB
:100C0000266E02D07F0E266E800E256E246A236A21
:100C1000F3D71DAE04D0800E266E256AF7D7266A5C
:100C2000256AF4D71F501E102F102E10F8E021BE99
:100C3000F0D71FBE0CD020502110EBE0D8902E36FC
:100C40002F361E361F362006D8A02106F2D7215097
:100C5000D4E12028D2E02EAE11D07F0E2E1402E176
:100C60002FA00CD02F2AE86A1E221F2207E3D8806B
:100C70001F321E322F32202A2028BFE02050C9E028
:100C80002FC023F01EC024F01F34256E2030266EA6
:100C90002532269E1DBE268EFCEF05F02536263613
:100CA00002E31D841D7E06E11D80266A256A246AF2
:100CB000236A1200262803E0D88025321200D8903B
:100CC000253202E11D8212001D8612002A362B36C3
:100CD00002E31D8C1D7E06E11D882B6A2A6A296AA3
:100CE000286A12002B2803E0D8802A321200D890FC
:080CF0002A32EAE11D8A12001C
:080CF800D9CFE6FFE1CFD9FFDF
:100D0000E652DF6AFBD81E0EE66E77D9E552DF2683
:100D1000DF5000D0E552E552E7CFD9FF1200D9CF1E
:100D2000E6FFE1CFD9FF040EE126DE6ADD6A98D83E
:100D3000FA0EDB50010A14E0010A01E022D0030E92
:100D4000E66E5BD9E552006E016A00BE0168D9CF3C
:100D5000E9FFDACFEAFF0050EE260150ED2211D074
:100D6000050EE66E4AD9E552006E016A00BE0168C2
:100D7000D9CFE9FFDACFEAFF0050EE260150ED228D
:100D800000D0FA0EDB0406E1370EE66E53EC0AF0F3
:100D9000E55205D0D20EE66E53EC0AF0E552020E93
:100DA000DB6A030EDB6A020EDBCF00F0030EDBCF43
:100DB00001F0026AD8900250000A06E6FF0E005CBD
:100DC000FF0E0158000E025808E280A406D0020E61
:100DD000DB2A030E01E3DB2AE6D780A404D0010E50
:100DE000DE26000EDD22010EE66EB6D8E552E66E76
:100DF000010EE76EFD0EDBCFE9FFFE0EDBCFEAFF53
:100E0000E750E926000EEA22E552E750EF6E010EA8
:100E1000E66EA2D8E552E66EFD0EDBCFE9FFFE0ED0
:100E2000DBCFEAFFE552E750EF6EE66A95D8E55270
:100E3000E66EFB0EDBCFE9FFFC0EDBCFEAFFE552EF
:100E4000E750EF6EDF50006E040EE15C03E200D06D
:100E5000E16AE552E16E0050E552E7CFD9FF12009A
:100E6000D9CFE6FFE1CFD9FF060EE1268992928421
:100E7000010EDF6EDF0602E0FDD7FCD78982DE526D
:100E8000010EDD6E010EDB0602E0FCD7FBD7899474
:100E90009294F36E020EF3CFDBFF020EDB0602E04C
:100EA000FCD7FBD78992050EF36E030EF3CFDBFF61
:100EB000030EDB0602E0FCD7FBD78982010EF36E3E
:100EC000040EF3CFDBFF040EDB0602E0FCD7FBD7FA
:100ED0009284010EF36E050EF3CFDBFF050EDB06E9
:100EE00002E0FCD7FBD78992060EE15C02E2E16AE0
:100EF000E552E16EE552E7CFD9FF1200D9CFE6FF08
:100F0000E1CFD9FF030EE1268984929489929292CF
:100F1000DF6A090EDF5C15E28982DE52010EDD6EAA
:100F2000010EDB0602E0FCD7FBD78992F36E020EBE
:100F3000F3CFDBFF020EDB0602E0FCD7FBD7DF2A94
:100F4000E8D78EDF030EE15C02E2E16AE552E16E72
:100F5000E552E7CFD9FF1200D9CFE6FFE1CFD9FFA5
:100F6000050EE126010EDB6A92848992800EDF6E07
:100F7000DF50000821E28982020EF36EF3CFDBFF1F
:100F8000020EDB0602E0FCD7FBD780A407D0010EDF
:100F9000DB50DF10E76E010EE7CFDBFF8992020E18
:100FA000F36E030EF3CFDBFF030EDB0602E0FCD78C
:100FB000FBD7DF90DF42DCD7FE0EDB0402E1929428
:100FC00089948982050EF36E040EF3CFDBFF040EC5
:100FD000DB0602E0FCD7FBD789929284010EDB503E
:100FE000006E050EE15C03E200D0E16AE552E16EBD
:100FF0000050E552E7CFD9FF1200D9CFE6FFE1CF8D
:10100000D9FF040EE126010EDB6A9294800EDF6E9A
:10101000DF50000820E2FE0EDB50DF1402E089847E
:1010200001D089948982050EF36E020EF3CFDBFFA7
:10103000020EDB0602E0FCD7FBD78992050EF36EA9
:10104000030EF3CFDBFF030EDB0602E0FCD7FBD77A
:10105000DF90DF42DDD7928489828050040B01E06B
:10106000010EE76E010EE7CFDBFF8992DB50006EC9
:10107000040EE15C03E200D0E16AE552E16E00504B
:08108000E552E7CFD9FF120091
:08108800DACFE4FFE2CFDAFF4A
:10109000E9CFE4FFEACFE4FFF6CFE4FFF7CFE4FFC8
:1010A000F5CFE4FFF3CFE4FFF4CFE4FFFACFE4FFA2
:1010B00000EE1CF0140EE80403E3EECFE4FFFBD7D0
:1010C00000EE00F01C0EE80403E3EECFE4FFFBD7D4
:1010D000E6529EA009D0EEEC0AF08DC0E6FF6BEC64
:1010E00009F0E55204EC09F0E55200EE1BF01C0E8D
:1010F000E80403E3E5CFEDFFFBD700EE2FF0140E7D
:10110000E80403E3E5CFEDFFFBD7E5CFFAFFE5CF3A
:10111000F4FFE5CFF3FFE5CFF5FFE5CFF7FFE5CF30
:10112000F6FFE5CFEAFFE5CFE9FFE5CFDAFF1100F3
:10113000D9CFE6FFE1CFD9FF1E0EE126DE6ADD6AD8
:10114000D950060FE96EDACFEAFF480EEE6E650E53
:10115000EE6E6C0EEE6EEE6E6F0EEE6E570EEE6E67
:101160006F0EEE6E720EEE6E6C0EEE6E640EEE6E26
:10117000210EEE6EEE6A700ED312400E9B6E9496A8
:10118000949C948E93909382949892969298809641
:101190008098D08ECF0EE66EE66A7C0EE66E0EEC80
:1011A0000AF0E552E552E5529F8A9E9A9D8A9F80F9
:1011B000F28E04EC09F0C80EE66E53EC0AF0E5522C
:1011C000FAD7DE6ADD6ADECF00F0DDCF01F0D8901D
:1011D000015004E6050E005C000E01580AE2C80E3C
:1011E000E66E53EC0AF0E552DF2A010E01E3DB2A3A
:1011F000EAD7E7D71E0EE15C02E2E16AE552E16E52
:08120000E552E7CFD9FF12000F
:08120800C50EE66E77EC0AF05A
:10121000E552FE0ECF6E720ECE6E1200D9CFE6FFF3
:10122000E1CFD9FFFD0EDBCFE9FFFE0EDBCFEAFFFA
:10123000EF500EE0FD0EDBCFE9FFDB2AFE0EDBCF29
:10124000EAFF01E3DB2AEF50E66E45D8E552EAD724
:10125000E552E7CFD9FF12008AC0F3FF8BC0F4FF3D
:1012600000D01200D9CFE6FFE1CFD9FFFD0EDBCFD2
:101270008AF0FE0EDBCF8BF0E552E7CFD9FF1200EC
:101280000A0E00018BAF02D0D89003D08A5D000E09
:101290008B5904E28A2B000E8B2302D08A6B8B6B56
:1012A0008AC0F3FF8BC0F4FF00D01200D9CFE6FF55
:1012B000E1CFD9FF2A0EE66E98EC0AF0E552000164
:1012C0008A6B8B6BFE0EDBCFE6FF05D8E552E5524D
:1012D000E7CFD9FF1200D9CFE6FFE1CFD9FF0A0E41
:1012E00000018A1901E18B5125E0010E8A1901E103
:1012F0008B5119E08A5101E18B510FE08AC000F057
:101300008BC001F0020E005E000E015AFE0EDB5093
:1013100000C0E7FFE75219E014D0050EE66EE3ECDB
:101320000AF0E55218D08190050EE66EE3EC0AF063
:10133000E55211D08180050EE66EE3EC0AF0E5522D
:101340000AD0E8427F0BE706FCE1010BE8B08180A0
:10135000E8A0819000D00A0E00018BAF02D0D89097
:1013600003D08A5D000E8B5904E28A2B000E8B237A
:0E13700002D08A6B8B6BE552E7CFD9FF1200DB
:02137E000E0E51
:10138000F66E000EF76E000EF86E00010900F550C3
:10139000856F0900F550866F03E1856701D03DD068
:1013A0000900F550806F0900F550816F0900F55074
:1013B000826F09000900F550E96E0900F550EA6EE8
:1013C000090009000900F550836F0900F550846F8A
:1013D00009000900F6CF87F0F7CF88F0F8CF89F041
:1013E00080C0F6FF81C0F7FF82C0F8FF0001835381
:1013F00002E1845307E00900F550EE6E8307F8E23E
:101400008407F9D787C0F6FF88C0F7FF89C0F8FFC7
:0C14100000018507000E865BBFD71200AC
:04141C00D9CFE6FF3F
:10142000DACFE6FFE1CFD9FFE2CFDAFFAC6AAB6AF1
:10143000FD0EDBB0AC88DBA202D0AC8CAB8CDBB495
:10144000AC8EDBA602D0AB8801D0AB8ADBB8AC8413
:101450009E98DBBAAB86DBAC02D09D8A01D09D9A08
:101460009E9ADBAE02D09D8801D09D98FB0EDB508A
:10147000AF6EFB0EFC0EDBCF01F001C000F0016A85
:101480000050B06EAC8AAB8E949C948EAC50100B16
:1014900004E0AC50800B01E1948CE552E5CFDAFF1B
:0614A000E7CFD9FF1200A6
:0A14A600D9CFE6FFE1CFD9FF030E16
:1014B000E126DE52040EDD6EFA0EF36E020EF3CF5D
:1014C000DBFF020EDB0602E0FCD7FBD7010EDB06DA
:1014D000F3E1FE0EDB06EDE1DF6A030EE15C02E202
:0E14E000E16AE552E16EE552E7CFD9FF120056
:0214EE00D9CF54
:1014F000E6FFDACFE6FFE1CFD9FFE2CFDAFFFD0E5C
:10150000DB507E0BCD6EFD0EDBAC02D0CD8E01D05C
:10151000CD9ECF6ACE6A9E90DBAE02D09D8001D078
:101520009D90CD80E552E5CFDAFFE7CFD9FF1200DD
:10153000D9CFE6FFDACFE6FFE1CFD9FFE2CFDAFF7E
:10154000ACAC04D0AC9000018CB3AC80FD0EDB5091
:0E155000AD6EE552E5CFDAFFE7CFD9FF12000E
:02155E00216A00
:10156000206A100EE76ED8902436253620362136B4
:101570002950205C2A50215805E32950205E2A502A
:0A158000215A242AE72EF0D71200AA
:06158A00000EF36E00EEFE
:1015900000F0060E01D81200EA6002D0EE6AFCD715
:0A15A000F350E9601200EE6AFCD778
:0615AA0015EE00F025EE35
:1015B00000F0F86A1D9CBFEC09F003EC00F098EC19
:0615C00008F0FBD7120049
:0A15C600FF0EE350E84E1200000093
:0C15D00000D000D000D0E82EFAD71200A6
:0415DC00CD909D9081
:0215E0001200F7
:0115E20043C5
:0215E300000006
:020000040030CA
:0100010009F5
:0100020019E4
:010003001EDE
:010005008179
:0100060001F8
:00000001FF
