:020000040000FA
:060000006EEF13F0120088
:020006000000F8
:060008005DEF0EF0120096
:02000E0043ECC1
:1000100005F0FB0EDBCFF3FFDB06F35000090AE02F
:1000200091EC05F0FA0EFCEC05F0F3E1011CF1E1B6
:10003000010E01D0000E72EF05F043EC05F03B0E0F
:10004000E12402E3E168E652E16E010EDB6A020E92
:10005000DB6AF90EDBCFF6FFFA0EDBCFF7FFFB0E04
:10006000DBCFF8FF0800F550DF6EDF5002E196EFBE
:1000700004F0250EDF5C02E089EF04F0030EDB6A7A
:10008000040EDB6A050EDB6A060EDB6A070EDB6A0E
:10009000ABEC04F02D0EDF5C0CE02B0EDF5C09E016
:1000A000200EDF5C06E0230EDF5C03E0300EDF5C39
:1000B0001AE1DF50300A14E0130A0FE0030A0AE0E5
:1000C0000B0A05E0060AE4E1030EDB80E1D7030E2C
:1000D000DB82DED7030EDB84DBD7030EDB86D8D7CB
:1000E000030EDB88D5D72A0EDF5C1BE1A7EC04F0FA
:1000F000F5EC04F010E0030EDB8024682568130E95
:10010000DBCF29F0140EDBCF2AF04CEC0BF0040E01
:1001100022C0DBFF03D0130EDEEC04F0ABEC04F0E6
:100120000BD0090EDB6A4CEC05F003E0C0EC05F0E7
:10013000FAD7090EDEEC04F0030EDBB0DB982E0ECE
:10014000DF5C1BE1ABEC04F02A0EDF5C0BE1A7ECFB
:1001500004F0F5EC04F003E1130E30EC05F0ABEC29
:1001600004F00BD0090EDB6A4CEC05F003E0C0ECA8
:1001700005F0FAD7090E30EC05F0680EDF5C07E1F8
:10018000ABEC04F0680EDF5C1DE1030E18D0740EBA
:10019000DF5C17E07A0EDF5C14E0480EDF5C06E0FF
:1001A000540EDF5C03E05A0EDF5C02E1020E07D062
:1001B0006C0EDF5C03E06A0EDF5C04E1010E83EC91
:1001C00005F0C9DBDF506E0A01E17FD31E0A01E1B1
:1001D00092D1200A01E18FD13F0A01E149D11A0AE7
:1001E00001E146D10D0A01E143D1200A01E140D1EC
:1001F0003A0A01E13DD1200A01E13AD1260A01E1A2
:1002000035D10D0A01E132D11A0A01E1D9D0200A13
:100210004AE0300A1FE0460A0EE0250A01E083D3D7
:10022000D950F90FE96EFF0EDA20EA6E010EEE5E8C
:10023000000EEE5AEE5A91EC05F0250EE66E95DBB7
:1002400003E1011C01E169D38DEC05F001E26BD300
:10025000DB2A69D3080EDB6A040EDB50010806E2D4
:10026000040EDB0455EC05F0DB508BDB080EDB5095
:1002700009E0030EDB50010B05E172DB01E04DD319
:10028000080EDB6A64DBEFCFDFFF05EC06F003E16D
:10029000011C01E142D38DEC05F001E3DB2A60DBB8
:1002A00001E141D33AD3070EDB5002080FE1D1EC54
:1002B00005F0030E98EC05F00E0EEECFDBFF0F0EEF
:1002C000EECFDBFF100EEECFDBFF20D0F70EDBCF43
:1002D00003F0F80EDBCF04F0020E035E000E045AAA
:1002E000F70E03C0DBFFF80E04C0DBFF03C0E9FF1D
:1002F00004C0EAFF88EC05F0026A0E0E00C0DBFFC6
:100300000F0E01C0DBFF100E02C0DBFF0E0EDBCFB5
:10031000E6FF0F0EDBCFE6FF100EDBCFE6FF32EC81
:1003200012F0E552E552E552130E23C0DBFF140E26
:1003300024C0DBFF060EDB5005E0130ECCEC05F00D
:1003400001E26ADBF0EC05F002E2130E37DBB3ECFE
:1003500005F006E0040ECCEC05F002E2050E2EDB03
:10036000030EDBB005D0FCDA01E0D7D2080EDB6A61
:10037000090EDB6A0E0EDBCFF6FF0F0EDBCFF7FFA9
:10038000100EDBCFF8FF0800F550DF6EDF5014E0F1
:10039000F6EC05F011E205EC06F003E1011C01E1C9
:1003A000BCD2BBDB01E3DB2A090EDB2AD9500E0FDE
:1003B000E96E000ECBDBE7D7D3DA01E1B4D2ADD2E0
:1003C000C6DA110EEECFDBFF120EEDCFDBFF110E02
:1003D000DBCFE6FF120EDBCFE6FF24EC12F0E55296
:1003E000E552130EF3CFDBFF140EF4CFDBFF060E46
:1003F000DB5004E0130ED0DB01E20EDBF0EC05F085
:1004000002E2130EDBDAAFDB05E0040EC5DB02E22D
:10041000050ED4DA030EDBB005D0A2DA01E07DD2FE
:10042000080EDB6A090EDB6A110EDBCFE9FF120E44
:10043000DBCFEAFFEFCFDFFFDF5014E0D7DB12E2C4
:10044000E4DB03E1011C01E168D267DB01E3DB2AA5
:10045000090EDB2A110EDB2ADBCFE9FF120EE8E3DF
:10046000DB2AE6D77DDA01E15ED257D2030EDB8EBE
:10047000070EDB0410E195DB040E5ADB0A0EEECF0B
:10048000DBFF0B0EEECFDBFF0C0EEECFDBFF0D0E16
:10049000EECFDBFF6CD0070EDB5003082CE1030E20
:1004A000DBAE0DD0B2DA020E76DAEFCF00F0016AE1
:1004B000026A036A00AE39D00168026835D0F70ECF
:1004C000DBCF01F0F80EDBCF02F0020E015E000E72
:1004D000025AF70E01C0DBFFF80E02C0DBFF01C0BD
:1004E000E9FF02C0EAFFEFCF00F00A0E00C0DBFF19
:1004F0000B0EDB6A38D0070EDB50020809E1030E51
:10050000DBAE04D059DB02AE10D00ED055DB0DD0DF
:10051000030EDBAE12D079DA020E3DDAF9DA026AA6
:10052000036A01AE02D002680368E2DA0C0E02C070
:10053000DBFF0D0E03C0DBFF1AD0F70EDBCF02F09E
:10054000F80EDBCF03F0020E025E000E035AF70E28
:1005500002C0DBFFF80E03C0DBFF02C0E9FF03C0EF
:10056000EAFFD6DAC5DA0C0EDB6A0D0EDB6A060E80
:10057000DB5005E1010EF36E050EF3CFDBFF150E28
:10058000DB6A160EDB6AD950370F006E000EDA20D8
:10059000016E390E00C0DBFF3A0E01C0DBFF380EE2
:1005A000DB6A080EDB6A0A0EAEDADF50780A12E068
:1005B000200A10E0280A0CE0200A0AE03F0A06E0C0
:1005C0000D0A02E0200A08E1020E05D0080E03D051
:1005D000080EDF26100E97DA030EDBBE02D0DB9288
:1005E000DB94DB50800B24E08ADAD890030EEB50CA
:1005F000000A08E6000EEE5C000EEE58000EEE5803
:10060000000EEE5815E213DA2768286829682A6870
:10061000B5EC11F00A0E1EC0DBFF0B0E1FC0DBFF96
:100620000C0E20C0DBFF0D0E21C0DBFF2D0E08D00D
:10063000030EDBA202D02B0E03D0DBA408D0200EC9
:10064000F36E170EF3CFDBFF150EDB2A02D0170E69
:10065000DB6A050EDB5003E1B7D901E189D0260E34
:10066000006E270E016E000E026E070EDBCF03F048
:10067000046A056A066A03C027F004C028F005C0B2
:1006800029F006C02AF0D3D97DEC12F000501E24C8
:10069000F36E01501F20F46E02502020F86EF4CF4C
:1006A000F7FFF3CFF6FF0800090EF5CFDBFF580E7A
:1006B000DF5C0FE1610EF36E090E7BD90AE3200EB9
:1006C000006E090EDBCFE7FF0050E75E090EE7CFB3
:1006D000DBFF070EDBCF00F0016A026A036A0FDA64
:1006E00000C027F001C028F002C029F003C02AF0A2
:1006F000EECF22F0EECF23F0EECF24F0EFCF25F0B7
:100700007DEC12F025C0EDFF24C0EDFF23C0EDFF0E
:1007100022C0EFFF390EDBCFE9FFDB063A0EDBCF5D
:10072000EAFF01E2DB06090EDBCFEFFF150EDB2A45
:100730004BD995E1030EDBA61DD06F0EDF5C06E101
:10074000C1D918E3150EDB285BDA14D0780EDF5C14
:1007500009E0580EDF5C06E0620EDF5C03E0420E4B
:10076000DF5C08E1020EF36E160EF3CFDBFF02D062
:10077000150EDB6A030EDB50100B0EE0040EDBCF10
:1007800000F0050EDB50D880005406E2060EDB5068
:1007900003E1040EDB5034DA95D90AE2050EDBCF13
:1007A000E7FF150EDB50E75E050EE7CFDBFF02D05B
:1007B000050EDB6A040EDBCF00F0160E45D9D8809B
:1007C000005414E2160EDBCFE6FF150EDBCFE6FF7A
:1007D000040EDBCFE6FF050EDB50E552E75CE55289
:1007E000D880E754E552D880E7545FD9030EDB5038
:1007F000010B0BE1080EDB5008E0B2D801E08DD010
:10080000080EDB50BED8080EDB6A170EDB5007E07F
:1008100088D9170EF1D903E1011C01E17ED0160E33
:10082000DB5016E07ED9300EE66E9FD802E1011C47
:1008300074E077D9DFCFE6FF73EC11F0E552E552B3
:10084000E552F4CF01F00001F31C02E1011C65E068
:10085000050EDBCF00F0160EDB50D880005409E205
:10086000050EDBCFE7FF160EDB50E75E050EE7CF88
:10087000DBFF300EE66E050ECBD94FE1390EDB2AD9
:10088000DBCFE9FF3A0E01E3DB2ADBCFEAFF090EFB
:10089000EFCFDBFFDB500EE044D9090EADD902E10A
:1008A000011C3BE0390EDB2ADBCFE9FF3A0EEDE31A
:1008B000DB2AEBD755D831E1160EDBCFE6FF080E69
:1008C000C3D8E552E7245DD82ED0070EDB50030ACB
:1008D0001CE0010A14E0030A07E07BD9DBCFEEFF3E
:1008E000020EDBCFEDFF1FD0F5D8056A03AE02D0B4
:1008F000046805682CD8BCD805C0EEFF14D0EAD82F
:1009000003BE046824D8B4D80ED063D9DBCFEFFF80
:100910000AD07BD905E1011C03E1F368F46810D02B
:10092000FCD801E3DB2A79D932EF00F0010EDBCFEE
:1009300000F0020EDBCF01F000C0F3FF01C0F4FFB6
:100940003B0EE15C02E2E16AE552E16ECBD029D9CF
:10095000020E98EF05F061D90800F550DF6E120025
:10096000200EE66E080E08EF06F073EC11F0E5526B
:10097000E552E552F3CF00F0F4CF01F00001F31C93
:100980001200006E016AD950010F4DD90050EE26B9
:100990000150ED221200045E000E055AF70E04C04D
:1009A000DBFFF80E05C0DBFF04C0E9FF05C0EAFF6E
:1009B0001200DBCFF4FFF350F45C1200DB50E76E63
:1009C000040EE7CFDBFF12000A0EDBCF00F00B0EA8
:1009D000DBCF01F00C0EDBCF02F00D0EDBCF03F00E
:1009E00000500110021003101200130EEECFDBFFB7
:1009F000140EEDCFDBFF130EDBCF00F0140EDBCFB8
:100A000001F00001800E01141200F70EDBCF04F09C
:100A1000F80EDBCF05F01200050EDB50E66ED95064
:100A2000130F01D9E552E750EE6EED6A12000A0E7F
:100A3000DBCF22F00B0EDBCF23F00C0EDBCF24F04C
:100A40000D0EDBCF25F01200DBCFE6FF150EDBCF5E
:100A5000E6FF050EDB50E552E724E552E7241200DD
:100A6000DB50CED8010EF36E060EF3CFDBFF120083
:100A7000EE50EFCFEAFFE96E02C0EEFF03C0EEFFDB
:100A800004C0EEFF1200D9CFE6FFDACFE6FFE1CFD8
:100A9000D9FFE2CFDAFF1200DFCFE6FFE66A4CECC7
:100AA00013F0E552E552F3501200E76E080EE7CF5F
:100AB000DBFF1200EECF00F0EECF01F0EFCF02F03F
:100AC000036A1200050EDBCF00F0150EDB50D88054
:100AD00000541200010EDBCF02F0020EDBCF03F058
:100AE000046A1200E552E5CFDAFFE7CFD9FF120022
:100AF0000A0E00C0DBFF0B0E01C0DBFF1200D95055
:100B00000A0F13EF06F0F36E070EF3CFDBFF1200B0
:100B1000EECF00F0EFCF01F01200010EDB2A020E43
:100B20001200FC0EDBCFE6FFFD0EDBCFE6FF12006E
:100B3000005E000E015AF70E00C0DBFFF80E01C088
:100B4000DBFF00C0E9FF01C0EAFF1200DA20EA6E15
:100B5000EF2AEECFF6FF000EEF22EECFF7FFEF22E7
:100B6000EECFF8FF1200040EDBCFE6FF130EDB50D2
:100B7000E552E75C9ADFDB5004DF060EDB50120023
:100B8000090EDB500A0DF350DF24D00FE76E090E7B
:100B9000E7CFDBFFABEF04F0DB50F36E050ED9EFD0
:100BA00004F0F70EDBCF00F0F80EDBCF01F01200FF
:100BB000DFCFE6FFB5EF04F028DF030EECDE5AEFDF
:100BC00005F007EC00F0E552E552E552E552000968
:100BD0001200BDDEEE50EFCFEAFFE96E010E12000B
:100BE000130EDB50F36E040ED9EF04F0040EDB504D
:100BF000F36E090ED9EF04F0DBCFE6FFB5EF04F09A
:100C0000E76E050EE7CFDBFF12008BDFD8EF05F0B4
:100C1000DBCFE6FF86DFE1EF05F0D950F90FE96E93
:100C2000FF0EA6EF05F0E96E000EDA20EA6E120064
:100C3000D9CFE6FFE1CFD9FF140EE126FD0EDBCFC1
:100C4000E9FFFE0EDBCFEAFFEECFDFFF010EEECFB6
:100C5000DBFF020EEECFDBFF030EEECFDBFFFB0E62
:100C6000DBCFE9FFFC0EDBCFEAFF040EEECFDBFFAC
:100C7000050EEECFDBFF060EEECFDBFF070EEECF4D
:100C8000DBFF040EDBCF04F0050EDBCF05F0060E14
:100C9000DBCF06F0070EDBCF07F00A0E286ED70E6B
:100CA000296E230E2A6E3C0E2B6E04C023F005C065
:100CB00024F006C025F007C026F0B9EC0AF023C0E6
:100CC00000F024C001F025C002F026C003F0286A1D
:100CD000296A200E2A6E420E2B6E00C023F001C03E
:100CE00024F002C025F003C026F022EC0AF0100E1A
:100CF00023C0DBFF110E24C0DBFF120E25C0DBFF7B
:100D0000130E26C0DBFF540E236EE30E246E250E59
:100D1000256E3D0E266E000EDFCF28F0010EDBCFD4
:100D200029F0020EDBCF2AF0030EDBCF2BF0B9EC5B
:100D30000AF023C004F024C005F025C006F026C048
:100D400007F0A20E236EE70E246E3B0E256E360EC4
:100D5000266E000EDFCF28F0010EDBCF29F0020E49
:100D6000DBCF2AF0030EDBCF2BF0B9EC0AF0000E3C
:100D7000DFCF28F0010EDBCF29F0020EDBCF2AF007
:100D8000030EDBCF2BF0B9EC0AF023C008F024C02F
:100D900009F025C00AF026C00BF008C028F009C0F1
:100DA00029F00AC02AF00BC02BF004C023F005C0C4
:100DB00024F006C025F007C026F022EC0AF023C07C
:100DC00000F024C001F025C002F026C003F0286A1C
:100DD000296A800E2A6E400E2B6E00C023F001C0DF
:100DE00024F002C025F003C026F022EC0AF0080E21
:100DF00023C0DBFF090E24C0DBFF0A0E25C0DBFF8A
:100E00000B0E26C0DBFF100EDBCF08F0110EDBCF80
:100E100009F0120EDBCF0AF0130EDBCF0BF0286ABD
:100E2000296AC80E2A6E410E2B6E08C023F009C035
:100E300024F00AC025F00BC026F022EC0AF023C0F3
:100E400004F024C005F025C006F026C007F00A0E05
:100E5000106ED70E116E230E126E3C0E136EAC0E7A
:100E6000236EC50E246EA70E256E380E266E000E5C
:100E7000DFCF28F0010EDBCF29F0020EDBCF2AF006
:100E8000030EDBCF2BF0B9EC0AF023C014F024C022
:100E900015F025C016F026C017F014C028F015C0B4
:100EA00029F016C02AF017C02BF010C023F011C093
:100EB00024F012C025F013C026F023EC0AF023C062
:100EC0000CF024C00DF025C00EF026C00FF00CC0B1
:100ED00028F00DC029F00EC02AF00FC02BF004C07E
:100EE00023F005C024F006C025F007C026F0B9ECB9
:100EF0000AF023C000F024C001F025C002F026C093
:100F000003F0080EDBCF18F0090EDBCF19F00A0E44
:100F1000DBCF1AF00B0EDBCF1BF018C028F019C086
:100F200029F01AC02AF01BC02BF000C023F001C02A
:100F300024F002C025F003C026F023EC0AF00C0ECA
:100F400023C0DBFF0D0E24C0DBFF0E0E25C0DBFF30
:100F50000F0E26C0DBFF0C0EDBCF00F00D0EDBCF3B
:100F600001F00E0EDBCF02F00F0EDBCF03F0286A8C
:100F7000296AC80E2A6E420E2B6E00C023F001C0F3
:100F800024F002C025F003C026F0A8EC0BF0010A03
:100F90000EE10C0EDB6A0D0EDB6AC80EF36E0E0E50
:100FA000F3CFDBFF420EF36E0F0EF3CFDBFF0C0E21
:100FB000DBCF00F00D0EDBCF01F00E0EDBCF02F029
:100FC0000F0EDBCF03F0CD0E286ECC0E296E2A6EED
:100FD0003D0E2B6E00C023F001C024F002C025F0AE
:100FE00003C026F0B1EC0BF0010A14E1CD0EF36E54
:100FF0000C0EF3CFDBFFCC0EF36E0D0EF3CFDBFF49
:10100000CC0EF36E0E0EF3CFDBFF3D0EF36E0F0E24
:10101000F3CFDBFFFB0EDBCFE9FFFC0EDBCFEAFFFC
:10102000100EDBCFEEFF110EDBCFEEFF120EDBCF8B
:10103000EEFF130EDBCFEEFFFD0EDBCFE9FFFE0E62
:10104000DBCFEAFF0C0EDBCFEEFF0D0EDBCFEEFFAA
:101050000E0EDBCFEEFF0F0EDBCFEEFF140EE15CCA
:1010600002E2E16AE552E16EE552E7CFD9FF1200F4
:10107000D9CFE6FFE1CFD9FF070EE126040EDB6AE8
:10108000F90EDBCF00F0FA0EDBCF01F0FB0EDBCF69
:1010900002F0FC0EDBCF03F0286A296A200E2A6ECC
:1010A000410E2B6E00C023F001C024F002C025F0D9
:1010B00003C026F0B9EC0AF079EC0BF0050E24C061
:1010C000DBFF060E25C0DBFFFD0EDBCF24F0FE0E9E
:1010D000DBCF25F0020E24C0DBFF030E25C0DBFFB3
:1010E000D950050FE96EDACFEAFFEE50ED1029E195
:1010F000020EDBCFE9FFDB2A030EDBCFEAFF01E3C1
:10110000DB2A300EEF6E020EDBCFE9FFDB2A030E87
:10111000DBCFEAFF01E3DB2A2E0EEF6E020EDBCF00
:10112000E9FFDB2A030EDBCFEAFF01E3DB2A300E07
:10113000EF6E020EDBCFE9FF030EDBCFEAFFEF6AB3
:1011400062D1050EDBCF00F0060EDBCF01F000010F
:10115000800E011427E0FD0EDBCFE9FFDB2AFE0E37
:10116000DBCFEAFF01E3DB2A2D0EEF6EFD0EDBCFB6
:1011700024F0FE0EDBCF25F0020E24C0DBFF030EB1
:1011800025C0DBFF24682568050EDBCF29F0060E9D
:10119000DBCF2AF04CEC0BF0050E22C0DBFF060E75
:1011A00023C0DBFFD950050FE96EDACFEAFFEE501E
:1011B000ED103FE0040EDB2A050EDBCF00F0060E3B
:1011C000DBCF01F00A0E296E2A6A00C024F001C0AC
:1011D00025F026EC0BF020C000F021C001F000C08B
:1011E000DEFF01C0DDFFDECF00F0DDCF01F0300E0D
:1011F0000026000E0122020EDBCFE9FFDB2A030EE0
:10120000DBCFEAFF01E3DB2A00C0EFFFD950050F77
:10121000E96EDACFEAFF0A0E296E2A6AEECF24F0D1
:10122000EDCF25F026EC0BF024C0EEFF25C0EDFF3E
:10123000B9D7DE6ADD6A040EDB50FE0BE842DF5CE4
:1012400066E2DF50E76EFD0EDBCFE9FFFE0EDBCF7F
:10125000EAFFE750E926000EEA22EF50E66E040EA0
:10126000DB50E76EFD0EDBCFE9FFFE0EDBCFEAFFC2
:10127000E750E926000EEA22E552E750EF6E040E31
:10128000DB50D880DF54FF0FE76EFD0EDBCFE9FFA8
:10129000FE0EDBCFEAFFE750E926000EEA22EF5010
:1012A000E66EDF50E76EFD0EDBCFE9FFFE0EDBCF13
:1012B000EAFFE750E926000EEA22E552E750EF6E1A
:1012C000040EDB50E76EFD0EDBCFE9FFFE0EDBCF39
:1012D000EAFFE750E926000EEA22EF50E66E040E20
:1012E000DB50D880DF54FF0FE76EFD0EDBCFE9FF48
:1012F000FE0EDBCFEAFFE750E926000EEA22E552B8
:10130000E750EF6EDF2A010E01E3DB2A94D7040ECB
:10131000DB043AE1FD0EDBCFE9FFFE0EDBCFEAFF97
:10132000EF50E66E020EE76EFD0EDBCFE9FFFE0E1C
:10133000DBCFEAFFE750E926000EEA22E552E7504C
:10134000EF6EFD0EDBCFE9FFFE0EDBCFEAFF300EC6
:10135000EF6E010EE76EFD0EDBCFE9FFFE0EDBCF79
:10136000EAFFE750E926000EEA222E0EEF6E020E8B
:10137000E76EDBCFE9FF030EDBCFEAFFE750E9269C
:10138000000EEA22EF6A3FD0040EDB50E76EFD0E3E
:10139000DBCFE9FFFE0EDBCFEAFFE750E926000EC8
:1013A000EA22E906EA5AEF50E66E040EDB50E76ED9
:1013B000FD0EDBCFE9FFFE0EDBCFEAFFE750E926AB
:1013C000000EEA22E552E750EF6E040EDB50E76EA6
:1013D000FD0EDBCFE9FFFE0EDBCFEAFFE750E9268B
:1013E000000EEA22E906EA5A2E0EEF6E010EE76EB3
:1013F000020EDBCFE9FF030EDBCFEAFFE750E92661
:10140000000EEA22EF6A070EE15C02E2E16AE552B1
:0A141000E16EE552E7CFD9FF1200AC
:06141A001D9E08D01D9E7E
:1014200025AE05D0246C251EE86A25221D8E25C018
:101430001FF024C01EF02F6A2E6A8E0E206E216AC5
:101440002BEF0CF02B7E1D6A67EC0CF07FEC0CF0A0
:101450001DB60FEF0CF01DA20AD01DAA03D01DBEB1
:101460000FEF0CF01DA41BEF0CF018EF0CF01DAAF1
:1014700005D01DAC1BEF0CF018EF0CF01DA00AD02E
:101480001DA808D01DBE04D01DA402D024EF0CF06E
:1014900028EF0CF02E6A216A2B50265C2D6E10E38B
:1014A00023C02FF024C01EF025C01FF026C02CF052
:1014B00028C023F029C024F02AC025F01D3A09D005
:1014C00028C02FF029C01EF02AC01FF02BC02CF01E
:1014D0002D6C1D9E1DBC1D8E2CC020F01DB057EF25
:1014E0000CF01A0E2D6057EF0CF0206A266A1DA42E
:1014F00008D0236C241E251E261EE86A24222522DD
:1015000026221DAC08D02F6C1E1E1F1E201EE86A4E
:101510001E221F222022226A2D5207E02634253265
:101520002432233222322D2EF9D723502F26245055
:101530001E2225501F222650202222C02EF01D9E42
:1015400020AE0BD02E6C2F1E1E1E1F1E201EE86A02
:101550002F221E221F2220221D8E20A006D0D880DE
:101560001F321E322F322E322C2A2CC020F02BEFAD
:101570000CF01D6A67EC0CF07FEC0CF01DB60FEF61
:101580000CF01DA205D01DB80FEF0CF016EF0CF0FB
:101590001DAA05D01DB00FEF0CF016EF0CF01DB01A
:1015A00002D01DA802D022EF0CF0216A2B50262475
:1015B000206EE86A21227E0E205EE86A215A2E6A99
:1015C0002F6A1E6A1F6A2A502502F4CF1FF0F3CF3C
:1015D0001EF029502502F3502F26F4501E22000E33
:1015E0001F222A502402F3502F26F4501E22000EF0
:1015F0001F2228502502F3502E26F4502F22000ED1
:101600001E221F2229502402F3502E26F4502F228E
:10161000000E1E221F222A502302F3502E26F450C1
:101620002F22000E1E221F2228502402F4502E26A4
:10163000000E2F221E221F2229502302F4502E2694
:10164000000E2F221E221F222BEF0CF01C6A2AAE46
:101650002FEF0BF0296C2A1EE86A2A221C1E25AEE9
:1016600037EF0BF0246C251EE86A25221C1E36EC91
:1016700013F025BE47EF0BF01CAE000C246C251EAA
:10168000E86A2522206C211EE86A2122000C1CBE7B
:101690003EEF0BF01D88FF0C25C02FF024C02EF06C
:1016A00024502902F4CF23F0F3CF22F025502A0250
:1016B000F4CF25F0F3CF24F02902F3502326F45081
:1016C0002422E86A25222E502A02F3502326F450C1
:1016D0002422E86A25222AAE72EF0BF02E50245EF7
:1016E0002F50255A2FAE000C2950245E2A50255A1F
:1016F000000C1D6A67EC0CF01DB683EF0BF01DA209
:101700000ED01DB405D07F0E256EFF0E246E1FD0A7
:10171000800E256E246A1BD0256A246A18D01DB05D
:10172000FBD78F0E2660EDD77E0E2664F5D78E0E82
:10173000265C05E0D89025322432262AF8D71DA44D
:1017400006D0246C251EE86A252225AEE5D71200B6
:10175000BAEC0BF01DB6000C1DB0000C1DB4000C53
:10176000010CBAEC0BF01DB6000C1DB0000C1DA452
:10177000000C010C1D6A67EC0CF07FEC0CF01DB640
:1017800012001DAE08D01DA004D01DA802D01D80DF
:1017900012001D9012002B50265C0BE12A50255C94
:1017A00008E12950245C05E12850235C02E11D80FA
:1017B0001200D8A002D01D8E10D026502BC026F0CB
:1017C0002B6E25502AC025F02A6E245029C024F003
:1017D000296E235028C023F0286E2B50265C10E081
:1017E000FF0F09E01D901DB403D01DAE1D84120033
:1017F0001DAE1D9412002B2AD8902A32293228328D
:101800002850235E2950245A2A50255A25BEEAD74B
:10181000D890233624362536262EF8D7C8D77F0E03
:10182000266EFF0E256E246E236E12007F0E1DBEE7
:10183000FF0E266E02D07F0E266E800E256E246A65
:10184000236AF3D71DAE04D0800E266E256AF7D723
:10185000266A256AF4D71F501E102F102E10F8E0AC
:1018600021BEF0D71FBE0CD020502110EBE0D89045
:101870002E362F361E361F362006D8A02106F2D768
:101880002150D4E12028D2E02EAE11D07F0E2E14AC
:1018900002E12FA00CD02F2AE86A1E221F2207E3A4
:1018A000D8801F321E322F32202A2028BFE020503D
:1018B000C9E02FC023F01EC024F01F34256E203055
:1018C000266E2532269E1DBE268E15EF0CF025367F
:1018D000263602E31D841D7E06E11D80266A256AE8
:1018E000246A236A1200262803E0D88025321200D9
:1018F000D890253202E11D8212001D8612002A3680
:101900002B3602E31D8C1D7E06E11D882B6A2A6A98
:10191000296A286A12002B2803E0D8802A32120094
:0A192000D8902A32EAE11D8A120075
:06192A00D9CFE6FFE1CF7A
:10193000D9FFE652DF6AFBD81E0EE66E77D9E55274
:10194000DF26DF5000D0E552E552E7CFD9FF120085
:10195000D9CFE6FFE1CFD9FF040EE126DE6ADD6ACA
:1019600098D8FA0EDB50010A14E0010A01E022D0F7
:10197000030EE66E5BD9E552006E016A00BE016897
:10198000D9CFE9FFDACFEAFF0050EE260150ED2271
:1019900011D0050EE66E4AD9E552006E016A00BE0E
:1019A0000168D9CFE9FFDACFEAFF0050EE260150F7
:1019B000ED2200D0FA0EDB0406E1370EE66EE4EC11
:1019C00012F0E55205D0D20EE66EE4EC12F0E552CC
:1019D000020EDB6A030EDB6A020EDBCF00F0030EA1
:1019E000DBCF01F0026AD8900250000A06E6FF0E33
:1019F000005CFF0E0158000E025808E280A406D0D9
:101A0000020EDB2A030E01E3DB2AE6D780A404D012
:101A1000010EDE26000EDD22010EE66EB6D8E5527E
:101A2000E66E010EE76EFD0EDBCFE9FFFE0EDBCFAB
:101A3000EAFFE750E926000EEA22E552E750EF6E92
:101A4000010EE66EA2D8E552E66EFD0EDBCFE9FF91
:101A5000FE0EDBCFEAFFE552E750EF6EE66A95D85F
:101A6000E552E66EFB0EDBCFE9FFFC0EDBCFEAFFB3
:101A7000E552E750EF6EDF50006E040EE15C03E2CA
:101A800000D0E16AE552E16E0050E552E7CFD9FFA0
:101A90001200D9CFE6FFE1CFD9FF060EE1268992E9
:101AA0009284010EDF6EDF0602E0FDD7FCD789824B
:101AB000DE52010EDD6E010EDB0602E0FCD7FBD725
:101AC00089949294F36E020EF3CFDBFF020EDB06D5
:101AD00002E0FCD7FBD78992050EF36E030EF3CF1D
:101AE000DBFF030EDB0602E0FCD7FBD78982010E89
:101AF000F36E040EF3CFDBFF040EDB0602E0FCD72F
:101B0000FBD79284010EF36E050EF3CFDBFF050EBB
:101B1000DB0602E0FCD7FBD78992060EE15C02E20D
:101B2000E16AE552E16EE552E7CFD9FF1200D9CF65
:101B3000E6FFE1CFD9FF030EE126898492948992D2
:101B40009292DF6A090EDF5C15E28982DE52010E95
:101B5000DD6E010EDB0602E0FCD7FBD78992F36E47
:101B6000020EF3CFDBFF020EDB0602E0FCD7FBD751
:101B7000DF2AE8D78EDF030EE15C02E2E16AE5527C
:101B8000E16EE552E7CFD9FF1200D9CFE6FFE1CFF2
:101B9000D9FF050EE126010EDB6A92848992800E40
:101BA000DF6EDF50000821E28982020EF36EF3CF70
:101BB000DBFF020EDB0602E0FCD7FBD780A407D0D8
:101BC000010EDB50DF10E76E010EE7CFDBFF8992DD
:101BD000020EF36E030EF3CFDBFF030EDB0602E013
:101BE000FCD7FBD7DF90DF42DCD7FE0EDB0402E13F
:101BF000929489948982050EF36E040EF3CFDBFF75
:101C0000040EDB0602E0FCD7FBD789929284010E1A
:101C1000DB50006E050EE15C03E200D0E16AE552A4
:101C2000E16E0050E552E7CFD9FF1200D9CFE6FFB1
:101C3000E1CFD9FF040EE126010EDB6A9294800EFB
:101C4000DF6EDF50000820E2FE0EDB50DF1402E002
:101C5000898401D089948982050EF36E020EF3CF38
:101C6000DBFF020EDB0602E0FCD7FBD78992050EF4
:101C7000F36E030EF3CFDBFF030EDB0602E0FCD7AF
:101C8000FBD7DF90DF42DDD7928489828050040B3E
:101C900001E0010EE76E010EE7CFDBFF8992DB501A
:101CA000006E040EE15C03E200D0E16AE552E16EF1
:0A1CB0000050E552E7CFD9FF120003
:061CBA00DACFE4FFE2CFE7
:101CC000DAFFE9CFE4FFEACFE4FFF6CFE4FFF7CF96
:101CD000E4FFF5CFE4FFF3CFE4FFF4CFE4FFFACF66
:101CE000E4FF00EE1CF0140EE80403E3EECFE4FF83
:101CF000FBD700EE00F01C0EE80403E3EECFE4FF98
:101D0000FBD7E6529EAC10D08AEC13F0F3CF30F044
:101D1000F4CF31F0D890315004E6C80E305C000E9C
:101D2000315801E282789E9CE55200EE1BF01C0EB9
:101D3000E80403E3E5CFEDFFFBD700EE2FF0140E30
:101D4000E80403E3E5CFEDFFFBD7E5CFFAFFE5CFEE
:101D5000F4FFE5CFF3FFE5CFF5FFE5CFF7FFE5CFE4
:101D6000F6FFE5CFEAFFE5CFE9FFE5CFDAFF1100A7
:101D7000D9CFE6FFE1CFD9FF5A0EE126480EDB6A44
:101D8000490EDB6A92969298809680989496949CDD
:101D9000948E9498E66A870EE66E9F0EE66EEDECE2
:101DA00011F0E552E552E5520D0EC16E810EE66E60
:101DB000E66A7C0EE66E2EEC11F0E552E552E55235
:101DC000D08E9F8C9E9C9D8C9F809F8A9E9A9D8A80
:101DD000F28E95EC0CF015EC10F0939093824C0E73
:101DE000DB6A010EE66ED9504D0FE66E000EDA206A
:101DF000E66ED9504E0FE66E000EDA20E66EA8ECC5
:101E00000CF0016E050EE15E0150006E4C0EDBCF52
:101E1000E7FF0050E7264C0EE7CFDBFFE66AD9501C
:101E20004D0FE66E000EDA20E66ED950520FE66EC8
:101E3000000EDA20E66EA8EC0CF0016E050EE15EF5
:101E40000150006E4C0EDBCFE7FF0050E7264C0E32
:101E5000E7CFDBFFDB5004E097EC0DF08086BDD0D0
:101E60008096A1EC13F09CEC13F0000901E0FBD785
:101E70008AEC13F04A0EF3CFDBFF4B0EF4CFDBFFFF
:101E80004E0EDBCF24F04F0EDBCF25F00DEC0AF029
:101E90004E0E23C0DBFF4F0E24C0DBFF500E25C0CB
:101EA000DBFF510E26C0DBFF520EDBCF24F0530EBA
:101EB000DBCF25F00DEC0AF0520E23C0DBFF530EF2
:101EC00024C0DBFF540E25C0DBFF550E26C0DBFF10
:101ED000D950520FE66E000EDA20E66ED9504E0F42
:101EE000E66E000EDA20E66E18EC06F0E552E552DA
:101EF000E552E552D950520FE96EDACFEAFFEECF44
:101F0000E6FFEECFE6FFEECFE6FFEFCFE6FFD9CF5D
:101F1000E6FFDACFE6FF38EC08F0006E060EE15E71
:101F20000050D9504E0FE96EDACFEAFFEECFE6FF50
:101F3000EECFE6FFEECFE6FFEFCFE6FFD950060F7C
:101F4000E66E000EDA20E66E38EC08F0006E060E43
:101F5000E15E00504A0EDBCFE6FF4B0EDBCFE6FF23
:101F6000D950060FE66E000EDA20E66ED9CFE6FFF6
:101F7000DACFE6FF420E006E250E016E026A00C047
:101F8000E6FF01C0E6FF02C0E6FFD9500C0FE66E87
:101F9000000EDA20E66E89EC10F0036E0B0EE15EA7
:101FA00003508078AC50020B04E18250080B01E131
:101FB000F9D7D9500C0FE66E000EDA20E66E57EC1A
:101FC00012F0E552E552D9500C0FE66E000EDA2001
:101FD000E66E1BEC10F0E552E552480EDB6A490E46
:101FE000DB6A480EDBCF00F0490EDBCF01F0D89062
:101FF000015004E6050E005C000E01580BE2C80E0D
:10200000E66EE4EC12F0E552480EDB2A490E01E3DD
:10201000DB2AE7D7E4D65A0EE15C02E2E16AE55238
:0A202000E16EE552E7CFD9FF120090
:06202A00450EE66EC3EC5A
:1020300012F0E5521200D9CFE6FFE1CFD9FFFD0E35
:10204000DBCFE9FFFE0EDBCFEAFFEF500EE0FD0E27
:10205000DBCFE9FFDB2AFE0EDBCFEAFF01E3DB2A61
:10206000EF50E66E06D8E552EAD7E552E7CFD9FF42
:102070001200D9CFE6FFE1CFD9FF020EE126010E13
:10208000DB6ADBCF00F00B0EE76E0018E8AE02D083
:10209000E73402D0E750005C32E2010EDB500A0A5E
:1020A00012E00B0A0EE0010A0BE0010EDB50FE0FFE
:1020B000006EFE0EDB5000C0E7FFE7520AE005D0DD
:1020C00010D081900ED081800CD0E8427F0BE706C3
:1020D000FCE1DF6E010EDF14E8B08180E8A08190A2
:1020E00000D0470EE66EFE0EE66E03EC13F0E552EE
:1020F000E5529EA0FED79E90010EDB2AC2D7020EAB
:10210000E15C02E2E16AE552E16EE552E7CFD9FF18
:022110001200BB
:0E211200D9CFE6FFDACFE6FFE1CFD9FFE2CF6B
:10212000DAFFE652E652E652E652D950F90F006E57
:10213000FF0EDA20016E020E00C0DBFF030E01C0AD
:10214000DBFF020EDBCFE6FF030EDBCFE6FFF90E6F
:10215000DBCFE6FFFA0EDBCFE6FFFB0EDBCFE6FFC1
:10216000D950FC0FE66EFF0EDA20E66E1DEC00F093
:10217000006E070EE15C02E2E16AE552E16E00509A
:10218000F3CFDEFFF4CFDDFFFC0EDBCFE9FFFD0E6A
:10219000DBCFEAFFEF6ADECF00F0DDCF01F000C059
:1021A000F3FF01C0F4FF040EE15C02E2E16AE552D4
:0E21B000E16EE552E5CFDAFFE7CFD9FF12006E
:0221BE00060E0B
:1021C000F66E000EF76E000EF86E00010900F55075
:1021D000856F0900F550866F03E1856701D03DD01A
:1021E0000900F550806F0900F550816F0900F55026
:1021F000826F09000900F550E96E0900F550EA6E9A
:10220000090009000900F550836F0900F550846F3B
:1022100009000900F6CF87F0F7CF88F0F8CF89F0F2
:1022200080C0F6FF81C0F7FF82C0F8FF0001835332
:1022300002E1845307E00900F550EE6E8307F8E2EF
:102240008407F9D787C0F6FF88C0F7FF89C0F8FF79
:0C22500000018507000E865BBFD712005E
:04225C00D9CFE6FFF1
:10226000DACFE6FFE1CFD9FFE2CFDAFFAC6AAB6AA3
:10227000FD0EDBB0AC88DBA202D0AC8CAB8CDBB447
:10228000AC8EDBA602D0AB8801D0AB8ADBB8AC84C5
:102290009E98DBBAAB86DBAC02D09D8A01D09D9ABA
:1022A0009E9ADBAE02D09D8801D09D98FB0EDB503C
:1022B000AF6EFB0EFC0EDBCF01F001C000F0016A37
:1022C0000050B06EAC8AAB8E949C948EAC50100BC8
:1022D00004E0AC50800B01E1948CE552E5CFDAFFCD
:0622E000E7CFD9FF120058
:0A22E600D9CFE6FFDACFE6FFE1CF23
:1022F000D9FFE2CFDAFFFB0EDBCF00F0FC0EDBCF25
:1023000001F00001800E01141AE1FB0EDBCFE9FFA2
:10231000FC0EDBCFEAFFEECFF3FFEDCFF4FFEE2AAA
:10232000000EEF22F3CFE9FFF4CFEAFFFD0EDBCF83
:10233000EFFFEF50016AF36E01C0F4FF10D0FB0E07
:10234000DB50FE0806E1FD0EDBCFE6FF7CEC13F070
:1023500005D0FD0EDBCFE6FFA3EC13F0E552E5520E
:0A236000E5CFDAFFE7CFD9FF120046
:06236A0022502702F3CF10
:102370001EF0F4CF1FF02802F3501F26000EF420A9
:10238000206E22502902F3502026000EF420216EE8
:1023900022502A02F350212623502702F3501F26F1
:1023A000F4502022000E212223502802F350202630
:1023B000F450212223502902F350212624502702D1
:1023C000F3502026F450212224502802F3502126D5
:0A23D00025502702F35021261200C9
:0623DA00D9CFE6FFDACFC7
:1023E000E6FFE1CFD9FFE2CFDAFFC26AC06AFC0E96
:1023F000DB407F0B3C0BC26EFC0EDB38F00B300B6E
:10240000006EFB0EDB500F0B0010C16EFD0EDB509B
:10241000040DF350380B016EFD0EDB380F0B070B6C
:10242000006EFD0EDB50800B00100110C06EFC0E24
:10243000DBAE03D09E9C9D8CF28CC280E552E5CF32
:08244000DAFFE7CFD9FF12001B
:08244800FE0EE3CFE9FFFF0ED9
:10245000E3CFEAFFF36AF46AEE5203E0F34AF42AA8
:10246000FBD71200FF0EE3CFF8FFE552FF0EE3CFDC
:10247000F7FFE552FF0EE3CFF6FFE552E66AE66AA4
:10248000E66A0900F55209E0FD0EE32A05E1FE0EB9
:10249000E32A02E1FF0EE32AF4D7FD0EE3CF23F097
:0E24A000FE0EE3CF24F0FF0EE3CF25F0120076
:0224AE00D9CF84
:1024B000E6FFDACFE6FFE1CFD9FFE2CFDAFFACA249
:1024C000FED7FC0EDBCFE9FFFD0EDBCFEAFFEF50BE
:1024D000E66E1FEC13F0E552FC0EDBCFE9FFDB2AC2
:1024E000FD0EDBCFEAFF01E3DB2AEF50E8E1E55226
:0A24F000E5CFDAFFE7CFD9FF1200B5
:0624FA00216A206A1F6A3E
:102500001E6A200EE76ED8902236233624362536F2
:102510001E361F362036213627501E5C28501F5885
:10252000295020582A50215809E327501E5E285070
:102530001F5A2950205A2A50215A222AE72EE4D71E
:02254000120087
:0E2542000D54656D70657261747572653A2096
:10255000257320432052656C617469766520487547
:102560006D69646974793A202573202525204C69AA
:1025700067687420496E74656E736974793A2025B2
:052580006420240A00A4
:0A258600D9CFE6FFDACFE6FFE1CF80
:10259000D9FFE2CFDAFFFD0EDB507E0BCD6EFD0ED4
:1025A000DBAC02D0CD8E01D0CD9ECF6ACE6A9E909C
:1025B000DBAE02D09D8001D09D90CD80E552E5CF6D
:0825C000DAFFE7CFD9FF12009A
:0825C800D9CFE6FFE1CFD9FFF6
:1025D000020EE126040EDF6EDE52FA0EDD6E010EF3
:1025E000DB0602E0FCD7FBD7DF06F6E1FE0EDB06DA
:1025F000F1E1020EE15C02E2E16AE552E16EE552D0
:06260000E7CFD9FF120034
:0A260600D9CFE6FFDACFE6FFE1CFFF
:10261000D9FFE2CFDAFFE652E652FC0EDBCFDEFF57
:10262000DBCFDDFF010EDB50CF6EDF50CE6EE5520B
:0E263000E552E552E5CFDAFFE7CFD9FF120001
:02263E00D9CFF2
:10264000E6FFDACFE6FFE1CFD9FFE2CFDAFFACACAD
:1026500004D0AC9000018AB3AC80FD0EDB50AD6EAF
:0C266000E552E5CFDAFFE7CFD9FF12000A
:04266C00216A206A55
:10267000100EE76ED89024362536203621362950A4
:10268000205C2A50215805E32950205E2A50215A07
:08269000242AE72EF0D7120006
:08269800F36AF46AFF0EE1246D
:1026A000E96EFF0EE220EA6EED6607D02F0EEF64B2
:0C26B00004D03A0EEF6001D0F32A1200B3
:0426BC00000EF36EAB
:1026C00000EE00F0060E01D81200EA6002D0EE6AB9
:0C26D000FCD7F350E9601200EE6AFCD762
:0426DC0015EE00F007
:1026E00025EE00F0F86A1D9CDFEC10F0A4EC13F06E
:0826F000B8EC0EF0FBD712005C
:0826F800FF0EE350ACBA04D060
:10270000AF6AAB8EAC8A949CACA2FED7AD6EF36E72
:04271000F46A120055
:0C271400C450036E026AC3500210F36E42
:0627200003C0F4FF1200EB
:0A272600303132333435363738399C
:07273000616263646566004D
:08273800C250020B01E0010E8A
:02274000120085
:04274200C28212003D
:0227460012007F
:0227480012007D
:020000040030CA
:0100010002FC
:0100020018E5
:010003001EDE
:010005008179
:0100060001F8
:00000001FF
